:100000000C943E000C94D0060C945B000C945B00A6
:100010000C945B000C945B000C945B000C945B00F4
:100020000C945B000C94EC070C947E070C945B0022
:100030000C945B000C945B070C945B000C945B00CD
:100040000C9438070C945B000C948F100C945B009C
:100050000C945B000C945B000C945B000C945B00B4
:100060000C945B000C945B00310A1C0A070AEF0930
:10007000D709BF09A7098C09460A260911241FBE02
:10008000CFEFD8E0DEBFCDBF11E0A0E0B1E0E4ECFF
:10009000FCE202C005900D92AA3CB107D9F722E01C
:1000A000AAECB1E001C01D92A538B207E1F70E94A9
:1000B000C9100C9460160C9400008DE9ECECF1E092
:1000C000DF011D928A95E9F7E1E8F0E08081826026
:1000D000808385B5826085BDE1EBF0E0808184603E
:1000E00080830895FC0180818F3F19F080818F5FAC
:1000F000808308958F929F92AF92BF92CF92DF92AA
:10010000EF92FF926B017C0181E4C81682E4D8066D
:100110008FE0E806F10408F049C0C114D104E104FD
:10012000F10401F58CE092E09F938F9324E331E09A
:100130003F932F931F9220E42F939F938F930E94BE
:100140007B138DB79EB708960FB6F8949EBF0FBE6F
:100150008DBFFF90EF90DF90CF90BF90AF909F90BA
:100160008F900895C701B60128EE33E040E050E0DB
:100170000E94E5107F936F933F932F938CE092E062
:100180009F938F932AE231E03F932F931F9220E4B5
:100190002F939F938F930E947B138DB79EB70C96DE
:1001A0000FB6F8949EBF0FBE8DBFD3CF88EE882EBA
:1001B00083E0982EA12CB12CC701B601A5019401B2
:1001C0000E94E5107F936F93CA01B901A5019401C4
:1001D0000E94E5107F936F93C701B60120E432E4DB
:1001E0004FE050E00E94E5103F932F938CE092E0A7
:1001F0009F938F932CE131E03F932F931F9220E444
:100200002F939F938F930E947B138DB79EB70E966B
:100210000FB6F8949EBF0FBE8DBF9BCF4F925F92DB
:100220006F927F928F929F92AF92BF92CF92DF9206
:10023000EF92FF920F931F93CF93DF93CDB7DEB76B
:100240002A970FB6F894DEBF0FBECDBF19821A826F
:100250001B821C82FE01359686E0DF011D928A9585
:10026000E9F78091550290915602A0915702B09102
:100270005802883E9340A105B10508F4C3C080919F
:10028000550290915602A0915702B09158028034C5
:100290009244AF40B10508F47DC060915502709161
:1002A000560280915702909158024090550250900A
:1002B00056026090570270905802809055029090BC
:1002C0005602A0905702B090580228EEC22E23E0AA
:1002D000D22EE12CF12CA70196010E94E5107F930C
:1002E0006F93C301B201A70196010E94E510CA01F4
:1002F000B901A70196010E94E5107F936F93C50194
:10030000B40120E432E44FE050E00E94E5103F9356
:100310002F9383E491E09F938F931F928AE08F93B2
:100320008E010F5F1F4F1F930F930E947B130FB619
:10033000F894DEBF0FBECDBF1F930F931F9282E0D4
:100340008F938EE491E09F938F931F9280E48F931D
:100350008CE092E09F938F930E947B130FB6F894EA
:10036000DEBF0FBECDBF2A960FB6F894DEBF0FBE1C
:10037000CDBFDF91CF911F910F91FF90EF90DF9054
:10038000CF90BF90AF909F908F907F906F905F9035
:100390004F900895609155027091560280915702D6
:1003A000909158028090550290905602A09057026A
:1003B000B090580238EEC32E33E0D32EE12CF12C4E
:1003C000A70196010E94E5107F936F93C501B401C8
:1003D000A70196010E94E5103F932F938CE391E0D3
:1003E0009F938F931F928AE08F938E010F5F1F4F11
:1003F0001F930F930E947B130FB6F894DEBF0FBEBE
:10040000CDBF9ACF8091550290915602A09157028C
:10041000B09158029F938F9389E391E09F938F93BC
:100420001F928AE08F938E010F5F1F4F1F930F93D0
:100430000E947B130FB6F894DEBF0FBECDBF7CCFFA
:100440004F925F926F927F928F929F92AF92BF92E4
:10045000CF92DF92EF92FF920F931F93CF93DF9390
:10046000CDB7DEB764970FB6F894DEBF0FBECDBF31
:100470001B861C861D861E8686E0FE013F96DF01D8
:10048000282F1D922A95E9F719821A821B821C8255
:100490003A97DF011D928A95E9F780915102909178
:1004A0005202A0915302B091540281349244AF4061
:1004B000B10508F004C18091510290915202A091BF
:1004C0005302B0915402893E9340A105B10508F052
:1004D00086C08091510290915202A0915302B09136
:1004E00054029F938F9389E391E09F938F931F9280
:1004F0008AE08F938E01055F1F4F1F930F930E9419
:100500007B130FB6F894DEBF0FBECDBF80915502AE
:1005100090915602A0915702B091580281349244B2
:10052000AF40B10508F01BC1809155029091560271
:10053000A0915702B0915802893E9340A105B105A0
:1005400008F085C08091550290915602A091570203
:10055000B09158029F938F9389E391E09F938F937B
:100560001F928AE08F93CE0101967C019F938F9317
:100570000E947B130FB6F894DEBF0FBECDBF1F9352
:100580000F93FF92EF921F9282E08F9384E591E0A8
:100590009F938F931F9280E48F938CE092E09F93C0
:1005A0008F930E947B130FB6F894DEBF0FBECDBFB2
:1005B00064960FB6F894DEBF0FBECDBFDF91CF912A
:1005C0001F910F91FF90EF90DF90CF90BF90AF9071
:1005D0009F908F907F906F905F904F900895609163
:1005E0005102709152028091530290915402809076
:1005F000510290905202A0905302B090540248EEE3
:10060000C42E43E0D42EE12CF12CA70196010E94C8
:10061000E5107F936F93C501B401A70196010E9475
:10062000E5103F932F938CE391E09F938F931F925C
:100630008AE08F938E01055F1F4F1F930F930E94D7
:100640007B130FB6F894DEBF0FBECDBF5FCF6091B6
:1006500055027091560280915702909158028090F5
:10066000550290905602A0905702B090580228EE82
:10067000C22E23E0D22EE12CF12CA70196010E947C
:10068000E5107F936F93C501B401A70196010E9405
:10069000E5103F932F938CE391E09F938F931F92EC
:1006A0008AE08F93CE0101967C019F938F930E94E5
:1006B0007B130FB6F894DEBF0FBECDBF60CF609145
:1006C00051027091520280915302909154024090D5
:1006D00051025090520260905302709054028090E8
:1006E000510290905202A0905302B090540258EEE2
:1006F000C52E53E0D52EE12CF12CA70196010E94C6
:10070000E5107F936F93C301B201A70196010E9488
:10071000E510CA01B901A70196010E94E5107F9377
:100720006F93C501B40120E432E44FE050E00E9431
:10073000E5103F932F9383E491E09F938F931F9253
:100740008AE08F938E01055F1F4F1F930F930E94C6
:100750007B130FB6F894DEBF0FBECDBFD7CE60912E
:100760005502709156028091570290915802409024
:100770005502509056026090570270905802809037
:10078000550290905602A0905702B090580238EE51
:10079000C32E33E0D32EE12CF12CA70196010E9449
:1007A000E5107F936F93C301B201A70196010E94E8
:1007B000E510CA01B901A70196010E94E5107F93D7
:1007C0006F93C501B40120E432E44FE050E00E9491
:1007D000E5103F932F9383E491E09F938F931F92B3
:1007E0008AE08F93CE0101967C019F938F930E94A4
:1007F0007B130FB6F894DEBF0FBECDBFC0CE3F93C4
:100800002F931F924F931F926F931F928F931F925C
:1008100082E08F938DE591E09F938F931F9280E408
:100820008F938CE092E09F938F930E947B138DB700
:100830009EB740960FB6F8949EBF0FBE8DBF089529
:100840002091B2008091610290916202A0916302B6
:10085000B0916402BA2FA92F982F8827820F911D7B
:10086000A11DB11DBC01CD01660F771F881F991F07
:10087000660F771F881F991F08956115710571F123
:100880004115510559F1FB01460F571F382F292FEC
:100890008191082E000C990B822793279C01332706
:1008A000329522952F7023273F7023272827392739
:1008B000C901982F88279295907F28273927C90149
:1008C0009927880F991F82959295907F9827807F0E
:1008D000982782279327E417F507C1F608950F9309
:1008E0001F93CF93DF93CDB7DEB72D970FB6F89454
:1008F000DEBF0FBECDBF19821A821B821C82FE0191
:10090000359686E0DF011D928A95E9F7AE01455FD5
:100910005F4FBE01645F7F4FCE010D960E945E0E59
:100920002AE030E08E010F5F1F4FA801BE01645F17
:100930007F4FCE010D960E94940D1F930F938B85D0
:100940001F928F938C851F928F938D851F928F930B
:100950001F9282E08F938DE591E09F938F931F927A
:1009600080E48F930CE012E01F930F930E947B139F
:10097000F80101900020E9F7AF014D505240B80155
:100980008FEF9FEF0E943D041F9223E02F939F93D0
:100990008F931F930F938CE691E09F938F930E9408
:1009A0006513F80101900020E9F7AF014D50524066
:1009B0000FB6F894DEBF0FBECDBF60E070E0C80197
:1009C0002D960FB6F894DEBF0FBECDBFDF91CF914D
:1009D0001F910F910C945E13CF92DF92EF92FF92D2
:1009E000CF93DF936B017C0181E08093680280915B
:1009F00081008F7B8093810080916F008162809362
:100A00006F0024C02091B200809161029091620237
:100A1000A0916302B0916402BA2FA92F982F882762
:100A2000820F911DA11DB11D880F991FAA1FBB1F09
:100A3000880F991FAA1FBB1F8C199D09AE09BF09FA
:100A400081349244AF40B10508F03FC08091680204
:100A50008111D8CF0E940E01C701B6010E947A0011
:100A6000CCE0D2E0FE0101900020E9F7AF014D504B
:100A70005240BE018FEF9FEF0E943D041F9223E082
:100A80002F939F938F93DF93CF938CE691E09F9367
:100A90008F930E94651309900020E9F7AE014D5035
:100AA00052408DB79EB708960FB6F8949EBF0FBE02
:100AB0008DBF60E070E08CE092E0DF91CF91FF901D
:100AC000EF90DF90CF900C945E13F8941092660232
:100AD000809181008F7B8093810080916F008F7D5A
:100AE00080936F0010925502109256021092570296
:100AF00010925802109268027894A8CFCF92DF9299
:100B0000EF92FF92CF93DF936B017C01109268020A
:100B10001092670210926502109266028091810025
:100B20008F7B8093810080916F00816280936F0042
:100B30008091690082608093690080916E0081607D
:100B400080936E00E89A80916802811105C08091BF
:100B50006702882309F457C080916802882399F3BB
:100B60002091B2008091610290916202A091630293
:100B7000B0916402BA2FA92F982F8827820F911D58
:100B8000A11DB11D880F991FAA1FBB1F880F991F98
:100B9000AA1FBB1F8C199D09AE09BF09813492445D
:100BA000AF40B105C8F2F89480916E008E7F8093BB
:100BB0006E00E89810926502809169008E7F8093A4
:100BC000690010926602809181008F7B8093810082
:100BD00080916F008F7D80936F001092550210926C
:100BE000560210925702109258021092510210921F
:100BF0005202109253021092540210926802109204
:100C000067027894A9CF0E942002C701B6010E9412
:100C10007A00CCE0D2E0FE0101900020E9F7AF01BC
:100C20004D505240BE018FEF9FEF0E943D041F9236
:100C300023E02F939F938F93DF93CF938CE691E0E4
:100C40009F938F930E94651309900020E9F7AE01EE
:100C50004D5052408DB79EB708960FB6F8949EBF80
:100C60000FBE8DBF60E070E08CE092E0DF91CF912D
:100C7000FF90EF90DF90CF900C945E1381E00E9484
:100C800062108823E9F08091CC018D36C9F1809102
:100C9000CC018237B1F08091CC01833709F44FC089
:100CA0008091CC01873609F461C08091CC018536F2
:100CB00009F473C0F89410924D0210924C0278948B
:100CC00008952091B2008091610290916202A091FA
:100CD0006302B0916402BA2FA92F982F8827820F40
:100CE000911DA11DB11DBC01CD01660F771F881F8D
:100CF000991F660F771F881F991F0E94EC04DACF97
:100D00002091B2008091610290916202A0916302F1
:100D1000B0916402BA2FA92F982F8827820F911DB6
:100D2000A11DB11DBC01CD01660F771F881F991F42
:100D3000660F771F881F991F0E947E05BBCFF8940E
:100D40001092B2001092610210926202109263023D
:100D5000109264028091700081608093700078949A
:100D600060E070E0CB010E947E05A4CFF894109261
:100D7000B20010926102109262021092630210920D
:100D8000640280917000816080937000789460E0CC
:100D900070E0CB010E94EC048DCF0E946F048ACFDB
:100DA0001F920F920FB60F9211242F938F939F9340
:100DB000AF93BF9380916502882309F43DC0809171
:100DC0006502813009F443C0F89480916E008E7FF3
:100DD00080936E00E89826B58091590290915A024E
:100DE000A0915B02B0915C02BA2FA92F982F88279F
:100DF000820F911DA11DB11DB695A7959795879559
:100E00008093510290935202A0935302B0935402E4
:100E10001092650210926702809169008E7F809324
:100E200069007894BF91AF919F918F912F910F900E
:100E30000FBE0F901F90189580916900836080937A
:100E40006900809165028F5F80936502EBCFF89413
:100E500016BC1092590210925A0210925B02109224
:100E60005C027894809165028F5F80936502DACF8F
:100E70001F920F920FB60F9211248F939F93AF93EF
:100E8000BF93EF93FF93E9E5F2E080819181A28126
:100E9000B3810196A11DB11D80839183A283B38389
:100EA000FF91EF91BF91AF919F918F910F900FBEE6
:100EB0000F901F9018951F920F920FB60F9211244A
:100EC0008F939F93AF93BF93EF93FF93EDE5F2E082
:100ED00080819181A281B3810196A11DB11D808382
:100EE0009183A283B383FF91EF91BF91AF919F91C3
:100EF0008F910F900FBE0F901F9018951F920F9219
:100F00000FB60F9211242F933F938F939F93AF931C
:100F1000BF9380916602882309F43FC080916602E6
:100F2000813009F445C0F894109266022091860041
:100F30003091870080915D0290915E02A0915F02E6
:100F4000B0916002DC0199278827820F931FA11DB1
:100F5000B11DB695A7959795879580935502909367
:100F60005602A0935702B0935802809181008F7B64
:100F70008093810080916F008F7D80936F007894C3
:100F800010926802BF91AF919F918F913F912F91E5
:100F90000F900FBE0F901F90189580918100806474
:100FA000809381008091CA018F5F8093CA01EACF4C
:100FB000F894109285001092840010925D021092B5
:100FC0005E0210925F021092600278948091660235
:100FD0008F5F80936602D6CF1F920F920FB60F924B
:100FE00011248F939F93AF93BF93EF93FF93E1E609
:100FF000F2E080819181A281B3810196A11DB11D92
:1010000080839183A283B383FF91EF91BF91AF91CE
:101010009F918F910F900FBE0F901F9018959091F8
:101020004D02992391F080914F028F3F29F08091DA
:101030004F028F5F80934F0285E791E09F938F93DC
:101040000E9465130F900F90089590914C0291119A
:1010500003C0823021F1089590914C02911123C078
:10106000833041F180914C02803498F010924C0210
:1010700080914E028F3F29F080914E028F5F8093C6
:101080004E0283EA91E09F938F930E9465130F9025
:101090000F9080914C028F5F80934C020895909145
:1010A0004C029923F9F2E0914C02F0E0E553FE4F37
:1010B0008083D6CF81E080934D020E944810E9CF13
:1010C00084E98093BC0008951092BC0094EA909348
:1010D000BC009091BC0097FFFCCF9091B900987F25
:1010E000983011F081E008958093BB0084E88093EC
:1010F000BC008091BC0087FFFCCF8091B900887F45
:10110000883111F0803471F780E008958093BB003E
:1011100084E88093BC008091BC0087FFFCCF909155
:10112000B900987F81E0983209F0089580E0089531
:1011300084EC8093BC008091BC0087FFFCCF809141
:10114000BB00089584E98093BC0008952F923F92DC
:101150004F925F926F927F928F929F92AF92BF92C7
:10116000CF92DF92EF92FF920F931F93CF93DF9373
:10117000CDB7DEB72E970FB6F894DEBF0FBECDBF4A
:101180003C018BA09CA0ADA0BEA0CFA0D8A4E9A498
:10119000FAA44BA55CA55E874D874DA55EA55C872F
:1011A0004B874FA558A95A87498749A95AA95887F3
:1011B0004F834BA95CA95E834D834DA95EA95A83D9
:1011C00049834FA958AD5C834B8301E084E8382EF6
:1011D00094E9592E24EC422E1FEF100F84E5800F66
:1011E000282E220C8EEE0E9464082092BB003092C2
:1011F000BC008091BC0087FFFCCF8091B900509269
:10120000BC008FEE0E946408812F90E0FC013197B2
:10121000EA30F10508F47CC04092BC008091BC002B
:1012200087FFFCCF8090BB00912C982C88244092A3
:10123000BC008091BC0087FFFCCF8091BB00882A56
:101240005092BC000B30F1F00F5FC6CF84EC80935E
:10125000BC008091BC0087FFFCCF2091BB0030E038
:10126000322F222784EC8093BC008091BC0087FF42
:10127000FCCF8091BB00A901482B5C834B8384E9A0
:101280008093BC009CA28BA2BEA2ADA2D8A6CFA286
:10129000FAA6E9A64D855E855CA74BA74B855C85C4
:1012A0005EA74DA749855A8558AB4FA74F815885F2
:1012B0005AAB49AB4D815E815CAB4BAB49815A81E6
:1012C0005EAB4DAB4B815C8158AF4FAB86E4FE010A
:1012D000B396D30101900D928A95E1F7C3012E9642
:1012E0000FB6F894DEBF0FBECDBFDF91CF911F9137
:1012F0000F91FF90EF90DF90CF90BF90AF909F90B5
:101300008F907F906F905F904F903F902F900895B7
:10131000EC5CFF4F0C9426114092BC008091BC0005
:1013200087FFFCCF2091BB0030E0322F2227409274
:10133000BC008091BC0087FFFCCF8091BB00A9015D
:10134000482B5E834D835092BC000F5F45CF409287
:10135000BC008091BC0087FFFCCF2091BB0030E037
:10136000322F22274092BC008091BC0087FFFCCF27
:101370008091BB00A901482B58874F83E4CF40924E
:10138000BC008091BC0087FFFCCF2091BB0030E007
:10139000322F22274092BC008091BC0087FFFCCFF7
:1013A0008091BB00A901482B5A874987CCCF409236
:1013B000BC008091BC0087FFFCCF2091BB0030E0D7
:1013C000322F22274092BC008091BC0087FFFCCFC7
:1013D0008091BB00A901482B5C874B87B4CF40921A
:1013E000BC008091BC0087FFFCCF2091BB0030E0A7
:1013F000322F22274092BC008091BC0087FFFCCF97
:101400008091BB00A901482B5E874D879CCF4092FD
:10141000BC008091BC0087FFFCCFE090BB00F12CAA
:10142000FE2CEE244092BC008091BC0087FFFCCFD4
:101430008091BB00E82A87CF4092BC008091BC001D
:1014400087FFFCCFC090BB00D12CDC2CCC24409279
:10145000BC008091BC0087FFFCCF8091BB00C82AF4
:1014600072CF4092BC008091BC0087FFFCCFA0905F
:10147000BB00B12CBA2CAA244092BC008091BC00C5
:1014800087FFFCCF8091BB00A82A5DCF4092BC00B3
:101490008091BC0087FFFCCF2091BB0030E0322F51
:1014A00022274092BC008091BC0087FFFCCF809136
:1014B000BB00A901482B5A83498345CF4F925F92C5
:1014C0006F927F928F929F92AF92BF92CF92DF9254
:1014D000EF92FF920F931F93CF93DF93CDB7DEB7B9
:1014E0008C018EEE0E94640884EF8093BB0084E838
:1014F0008093BC009091BC0097FFFCCF8091B90015
:101500008EE28093BB0084E88093BC009091BC0085
:1015100097FFFCCF8091B90084E98093BC008FE4F1
:1015200096E40197F1F700C000008EEE0E94640877
:1015300086EF8093BB0084E88093BC009091BC0050
:1015400097FFFCCF8091B90084E98093BC008FEEB7
:101550000E94640884EC8093BC009091BC0097FFCB
:10156000FCCFC090BB00D12CDC2CCC24E12CF12C86
:1015700084EC8093BC009091BC0097FFFCCF8091DD
:10158000BB00C82A84E98093BC008D8D9E8DA70185
:101590009601281B390B41095109AB8DBC8D0E9466
:1015A0003B110E94651220E030E040E058E30E94C9
:1015B000F1120E942D124B015C016DA17EA1072E3C
:1015C000000C880B990B0E94651220E030E040E08F
:1015D00055E40E94F1122B013C016FA178A5CB01CB
:1015E000770FAA0BBB0BBC01CD01680D791D8A1DBD
:1015F0009B1D0E9465129B01AC01C301B2010E94B8
:10160000BB110E942D1224013501460E571E681E83
:10161000791EC9A6DAA6EBA6FCA689AA9AAAABAA45
:10162000BCAA6DAB7EAB8FAB98AF29964CAE5DAECE
:101630006EAE7FAE2997C301B201685F7F4F8F4FB7
:101640009F4F0E94651220E030E040E85DE30E9479
:10165000F1120E942D1265966CAF7DAF8EAF9FAFD9
:10166000659786E4FE017396D80101900D928A95E4
:10167000E1F7C801DF91CF911F910F91FF90EF909B
:10168000DF90CF90BF90AF909F908F907F906F90A2
:101690005F904F9008954F925F926F927F928F92DA
:1016A0009F92AF92BF92CF92DF92EF92FF920F93F1
:1016B0001F93CF93DF93CDB7DEB768970FB6F8943B
:1016C000DEBF0FBECDBF8C018EEE0E94640884EF9A
:1016D0008093BB0084E88093BC008091BC0087FFAE
:1016E000FCCF8091B90084E38093BB0084E88093B1
:1016F000BC008091BC0087FFFCCF8091B90084E9D9
:101700008093BC008FE39CE90197F1F700C00000D3
:101710008EEE0E94640886EF8093BB0084E880937D
:10172000BC008091BC0087FFFCCF8091B90084E9A8
:101730008093BC008FEE0E94640884EC8093BC0010
:101740008091BC0087FFFCCF4091BB0050E0542F3C
:10175000442760E070E084EC8093BC008091BC0082
:1017600087FFFCCF8091BB006A017B01C82ACD8234
:10177000DE82EF82F88684E98093BC00A1968CAD6E
:101780009DADAEADBFADA1972C013D0120EA421A3F
:101790002FE0520A61087108A3019201C301B2014E
:1017A0000E94D5100E94651220E030E040E859E325
:1017B0000E94F1126B017C016BA57CA5072E000C29
:1017C000880B990B0E94651220E030E040E850E45D
:1017D0000E94F1124B015C0169AD7AAD072E000C3D
:1017E000880B990B0E946512A70196010E94F112C5
:1017F00020E030E040E05AE30E94F1120E942D12F6
:1018000069837A838B839C83ADA5BEA5A3019201D6
:101810000E9446110E94651220E030E040E05AE349
:101820000E94F1120E942D1229813A814B815C8124
:10183000620F731F841F951F0E9465129B01AC01EC
:10184000C501B4010E944F1120E030E040E050E4B7
:101850000E944F1120E030E040E85EE30E94F11268
:101860000E942D1269837A838B839C83AFA5B8A9CC
:10187000A30192010E9446110E94651220E030E00F
:1018800040E059E30E94F1120E942D124B015C01CD
:101890006FA978AD072E000C880B990B0E9465127A
:1018A0009B01AC01C701B6010E94F11220E030E0BB
:1018B00040E857E30E94F1120E942D12DC01CB0197
:1018C000880D991DAA1DBB1DBC01CD016E5F7F4F08
:1018D0008F4F9F4F0E94651220E030E040E85EE3AA
:1018E0000E94F1120E942D1269877A878B879C874C
:1018F0009B01AC0130584F4F5F4FA9A9BAA90E9474
:101900003B110E94631220E030E040E058E30E9467
:10191000F1120E942D126D877E878F87988B2D8103
:101920003E814F815885C980DA80EB80FC802C197C
:101930003D094E095F09A0E5B3EC0E943B114B0144
:101940005C0197FDDCC00E9465129B01AC010E9406
:101950004F116B017C016D857E858F8598890E9472
:1019600065129B01AC01C701B6010E94BB110E9428
:101970002D12698B7A8B8B8B9C8B69897A898B89E9
:101980009C890E9465126B017C0120E030E040E8F8
:101990005BE30E94F1129B01AC010E94F1120E94D4
:1019A0002D129B01AC01AEEDBBE00E943B110E94E9
:1019B000651220E030E040E857E30E94F1120E94F7
:1019C0002D126D8B7E8B8F8B988FA3E4B3EE2989BC
:1019D0003A894B895C890E9449110E94651220E076
:1019E00030E040E857E30E94F1120E942D122D8151
:1019F0003E814F81588529962CAF3DAF4EAF5FAFEA
:101A000029972D893E894F89588D2D962CAF3DAF52
:101A10004EAF5FAF2D9761966CAF7DAF8EAF9FAF2E
:101A2000619729853A854B855C8565962CAF3DAFDE
:101A30004EAF5FAF659729813A814B815C81699692
:101A40002CAF3DAF4EAF5FAF69972D853E854F857B
:101A500058896D962CAF3DAF4EAF5FAF6D97A59691
:101A60004CAE5DAE6EAE7FAEA597A9968CAE9DAE28
:101A7000AEAEBFAEA9972D893E894F89588D260FEE
:101A8000371F481F591FCA01B9016153714F8F4F4A
:101A90009F4F0E94651220E030E040E85DE30E9425
:101AA000F1129B01AC01C701B6010E944F110E94C7
:101AB0002D12E1966CAF7DAF8EAF9FAFE19786E4BC
:101AC000FE01BB96D80101900D928A95E1F7C801FD
:101AD00068960FB6F894DEBF0FBECDBFDF91CF91F1
:101AE0001F910F91FF90EF90DF90CF90BF90AF903C
:101AF0009F908F907F906F905F904F9008952D856D
:101B00003E854F8558890E940711CA01B9010E947C
:101B100065129B01AC010E944F110E942D12698B2E
:101B20007A8B8B8B9C8B29CFCF93DF93CDB7DEB78E
:101B3000C059D1090FB6F894DEBF0FBECDBF8DB727
:101B40009EB7865491090FB6F8949EBF0FBE8DBF05
:101B5000ADB7BEB7119686E4FE01319601900D92A5
:101B60008A95E1F7CE010196C157DF4F2883CF5800
:101B7000D040C057DF4F3883C059D040C357DF4FE4
:101B80004883CD58D040C257DF4F5883CE58D040FD
:101B90000E94A6088DB79EB78A5B9F4F0FB6F89438
:101BA000DEBF0FBECDBF865491090FB6F8949EBF1D
:101BB0000FBE8DBFADB7BEB7119686E4FE0131965C
:101BC00001900D928A95E1F7CE01895B9F4F0E94AB
:101BD0005E0A86E4FE01E95BFF4FDE01119601908B
:101BE0000D928A95E1F78DB79EB78A5B9F4F0FB62E
:101BF000F894DEBF0FBECDBF865491090FB6F8949E
:101C00009EBF0FBE8DBFADB7BEB7119686E4FE0175
:101C1000319601900D928A95E1F7CE01895B9F4F35
:101C20000E944B0B86E4FE01E95BFF4FDE0111963B
:101C300001900D928A95E1F70FB6F894DEBF0FBEC2
:101C4000CDBF27968FAD27978F9326968FAD26977A
:101C50008F9325968FAD25978F9324968FAD2497DC
:101C60008F9382EC91E09F938F93C057DF4F388121
:101C7000C059D0403F93C157DF4F2881CF58D04043
:101C80002F93C257DF4F5881CE58D0405F93C35730
:101C9000DF4F4881CD58D0404F930E947B130FB641
:101CA000F894DEBF0FBECDBFC057DF4F0FB6F8941C
:101CB000DEBF0FBECDBFDF91CF9108958F929F926F
:101CC000AF92BF92CF92DF92EF92FF920F931F934A
:101CD000CF93DF9300D000D01F92CDB7DEB76C0159
:101CE000FE01319685E0DF011D928A95E9F7569A4B
:101CF0005E9ABFEF21EE34E0B15020403040E1F772
:101D000000C000005E988FEC97E00197F1F700C0EB
:101D100000005E9A569895ED9A95F1F7000089B10A
:101D2000AFE3B1E01197F1F700C0000089B18FE394
:101D300091E00197F1F700C000008F017E0196E06D
:101D4000E90EF11CA1E0B0E027E030E090E04E9B0E
:101D5000FECFE0EAEA95F1F74E9B07C0FD01022EA7
:101D600001C0EE0F0A94EAF79E2B4E99FECF215048
:101D7000310968F7F80191938F01EE15FF0521F7FE
:101D8000569A5E9AFFEF21EE34E0F1502040304049
:101D9000E1F700C0000039810A812B819C81802FEE
:101DA000830F820F890FED818E1791F00F900F90A6
:101DB0000F900F900F90DF91CF911F910F91FF9097
:101DC000EF90DF90CF90BF90AF909F908F9008954D
:101DD0007A015B01460110E0132B892F90E06C0122
:101DE000D22AD7FC3AC0B60180E090E00E9463128C
:101DF00020E030E040E251E40E94BB110E942D122D
:101E0000D4016C939601ADECBCEC0E942C1196951C
:101E1000879596958795969587959C01220F331FF8
:101E2000880F991F880F991F880F991F820F931F82
:101E3000F601E81BF90BD501EC93B80180E090E0C6
:101E40000E94631220E030E040E251E40E94BB11A6
:101E50000E943412F7016083A9CFE894D7F8B60145
:101E600080E090E00E94631220E030E040E251E424
:101E70000E94BB1190580E942D12D4016C939601C0
:101E8000ADECBCEC0E942C119695879596958795A4
:101E9000969587959C01220F331F880F991F880FF5
:101EA000991F880F991F820F931FB601681B790B2A
:101EB00080E090E00E94631290580E943412F50175
:101EC0006083BBCF90916D0280916C02981791F066
:101ED000E0916C0281E08E0F80936C02F0E0E75994
:101EE000FD4F868190916C02903110F010926C023F
:101EF00090E008958EEF9FEF08959091C00095FFB8
:101F0000FCCF8093C600082E000C990B089586E143
:101F1000E9E6F2E0DF011D928A95E9F7BFEF22E5DD
:101F200087E0B15020408040E1F700C0000082E22D
:101F30008093C4001092C50082E08093C00086E0C8
:101F40008093C20088E98093C10080E284B915B80B
:101F5000EFE7F2E08EE091E09383828380E091E00E
:101F600091838083089508958F3F11F08F5F0895C6
:101F70008FEF08958F3F2FEF920711F0019608958C
:101F80008FEF9FEF0895FC01862F90819F3F09F00E
:101F90009F5F90830895FC01862F208131812F3F20
:101FA0009FEF390711F02F5F3F4F31832083089552
:101FB0008091690287FF0895789408958FB7E9E6C4
:101FC000F2E090818078892B8083F894089586ECE4
:101FD00091E09F938F930E9465130F900F90089547
:101FE00090916D0280916C02981738F480916D0287
:101FF00090916C02805F891B089580916D02909191
:102000006C02891B0895CF93C82F9FB72091690256
:102010009078922B90936902F8940E94F00FC81761
:10202000A0F490916C02EC2FE90FE03160F4F0E045
:10203000E759FD4F868190E02091690227FF01C09A
:102040007894CF910895E051F2CF8FEF9FEFF4CFC6
:102050008FB7909169028078892B80936902F894F8
:102060008091C00087FF08C08091C60080936E02F7
:102070008091C00087FDF8CF10926C0210926D0223
:1020800010926E028091690287FF089578940895F6
:102090002FB7309169022078232B20936902F8949E
:1020A00020916B02282331E009F430E090916B021B
:1020B000982B90936B028091690287FF01C07894FE
:1020C000832F0895982F8FB7209169028078822BF3
:1020D00080936902F89420916B02292381E009F42E
:1020E00080E020916B029095922390936B029091E7
:1020F000690297FF08957894089590916B02982350
:1021000081E009F480E00895811102C02D980895BE
:102110002D9A089595B180E2892785B908951F9277
:102120000F920FB60F9211242F933F934F935F930B
:102130006F937F938F939F93AF93BF93EF93FF938F
:102140008091C600823521F49091CB019034A9F0A2
:102150008093CB010E940F08FF91EF91BF91AF9147
:102160009F918F917F916F915F914F913F912F91AF
:102170000F900FBE0F901F90189598E088E10FB652
:10218000F894A895809360000FBE90936000A89586
:10219000FFCF0E94870F0E945D000E94E70F789496
:1021A0000E94B30F0E943E06FBCFDB018F939F93EB
:1021B0000E943B11BF91AF91A29F800D911DA39FE3
:1021C000900DB29F900D11240895A1E21A2EAA1B22
:1021D000BB1BFD010DC0AA1FBB1FEE1FFF1FA217D7
:1021E000B307E407F50720F0A21BB30BE40BF50BD4
:1021F000661F771F881F991F1A9469F7609570955D
:10220000809590959B01AC01BD01CF010895052EED
:1022100097FB1EF400940E941E1157FD07D00E94E8
:10222000E51007FC03D04EF40C941E115095409518
:10223000309521953F4F4F4F5F4F08959095809572
:10224000709561957F4F8F4F9F4F0895EE0FFF1F41
:102250000590F491E02D0994A29FB001B39FC001B5
:10226000A39F700D811D1124911DB29F700D811DC2
:102270001124911D08950E942C11A59F900DB49FCB
:10228000900DA49F800D911D11240895B7FF0C940B
:102290003B110E943B11821B930B08955058BB27A2
:1022A000AA270E9466110C94B7120E94A91238F056
:1022B0000E94B01220F039F49F3F19F426F40C94D8
:1022C000A6120EF4E095E7FB0C94A012E92F0E94F1
:1022D000C81258F3BA17620773078407950720F0EE
:1022E00079F4A6F50C94EA120EF4E0950B2EBA2FB1
:1022F000A02D0B01B90190010C01CA01A00111240C
:10230000FF27591B99F0593F50F4503E68F11A16B7
:10231000F040A22F232F342F4427585FF3CF469548
:1023200037952795A795F0405395C9F77EF41F166A
:10233000BA0B620B730B840BBAF09150A1F0FF0F34
:10234000BB1F661F771F881FC2F70EC0BA0F621F20
:10235000731F841F48F4879577956795B795F79510
:102360009E3F08F0B0CF9395880F08F09927EE0FA5
:102370009795879508950E94CF110C94B7120E94EB
:10238000B01258F00E94A91240F029F45F3F29F0E2
:102390000C94A01251110C94EB120C94A6120E94F2
:1023A000C81268F39923B1F3552391F3951B550B8C
:1023B000BB27AA2762177307840738F09F5F5F4F18
:1023C000220F331F441FAA1FA9F335D00E2E3AF057
:1023D000E0E832D091505040E695001CCAF72BD06F
:1023E000FE2F29D0660F771F881FBB1F26173707C0
:1023F0004807AB07B0E809F0BB0B802DBF01FF27F2
:1024000093585F4F3AF09E3F510578F00C94A0121C
:102410000C94EB125F3FE4F3983ED4F386957795E6
:102420006795B795F7959F5FC9F7880F911D9695AA
:10243000879597F90895E1E0660F771F881FBB1F06
:10244000621773078407BA0720F0621B730B840BB3
:10245000BA0BEE1F88F7E09508950E943412689435
:10246000B1110C94EB1208950E94D01288F09F577E
:1024700098F0B92F9927B751B0F0E1F0660F771FA8
:10248000881F991F1AF0BA95C9F714C0B13091F09E
:102490000E94EA12B1E008950C94EA12672F782F97
:1024A0008827B85F39F0B93FCCF386957795679563
:1024B000B395D9F73EF490958095709561957F4FCF
:1024C0008F4F9F4F0895E89409C097FB3EF4909575
:1024D0008095709561957F4F8F4F9F4F9923A9F0FD
:1024E000F92F96E9BB279395F6958795779567958C
:1024F000B795F111F8CFFAF4BB0F11F460FF1BC0D0
:102500006F5F7F4F8F4F9F4F16C0882311F096E962
:1025100011C0772321F09EE8872F762F05C0662310
:1025200071F096E8862F70E060E02AF09A95660FC9
:10253000771F881FDAF7880F9695879597F9089582
:1025400097F99F6780E870E060E008959FEF80EC66
:10255000089500240A941616170618060906089509
:1025600000240A9412161306140605060895092E6F
:102570000394000C11F4882352F0BB0F40F4BF2BDE
:1025800011F460FF04C06F5F7F4F8F4F9F4F08951E
:1025900057FD9058440F551F59F05F3F71F0479514
:1025A000880F97FB991F61F09F3F79F087950895F9
:1025B000121613061406551FF2CF4695F1DF08C018
:1025C000161617061806991FF1CF86957105610535
:1025D00008940895E894BB2766277727CB0197F9DD
:1025E00008950E9404130C94B7120E94A91238F0A7
:1025F0000E94B01220F0952311F00C94A0120C94BC
:10260000A61211240C94EB120E94C81270F3959F2D
:10261000C1F3950F50E0551F629FF001729FBB27D9
:10262000F00DB11D639FAA27F00DB11DAA1F649F75
:102630006627B00DA11D661F829F2227B00DA11D28
:10264000621F739FB00DA11D621F839FA00D611DAE
:10265000221F749F3327A00D611D231F849F600DCF
:10266000211D822F762F6A2F11249F5750409AF0F8
:10267000F1F088234AF0EE0FFF1FBB1F661F771F84
:10268000881F91505040A9F79E3F510580F00C944F
:10269000A0120C94EB125F3FE4F3983ED4F38695BE
:1026A00077956795B795F795E7959F5FC1F7FE2BEF
:1026B000880F911D9695879597F90895DC0101C0C3
:1026C0006D9341505040E0F70895A0E0B0E0EBE694
:1026D000F3E10C943916AE014B5F5F4FFA01619143
:1026E0007191AF0180918102909182020E94AB139F
:1026F000E2E00C945516AEE0B0E0E1E8F3E10C94B2
:1027000037160D891E898F89988D26E02C831A83B0
:10271000098397FF02C080E090E801979E838D8334
:10272000AE01455E5F4F698D7A8DCE0101960E94A4
:10273000AB134D815E8157FD0AC02F81388542174A
:1027400053070CF49A01F801E20FF31F10822E9642
:10275000E4E00C945316ACE0B0E0E1EBF3E10C9450
:1027600029167C016B018A01FC0117821682838184
:1027700081FFBDC1CE0101964C01F7019381F601A5
:1027800093FD859193FF81916F01882309F4ABC17B
:10279000853239F493FD859193FF81916F018532E4
:1027A00029F4B70190E00E949315E7CF512C312C0A
:1027B00020E02032A0F48B3269F030F4803259F0FE
:1027C000833269F420612CC08D3239F0803339F4C2
:1027D000216026C02260246023C0286021C027FD1C
:1027E00027C030ED380F3A3078F426FF06C0FAE003
:1027F0005F9E300D1124532E13C08AE0389E300D99
:102800001124332E20620CC08E3221F426FD6BC1C0
:10281000206406C08C3611F4206802C0883641F46A
:10282000F60193FD859193FF81916F018111C1CFD5
:10283000982F9F7D9554933028F40C5F1F4FFFE332
:10284000F9830DC0833631F0833771F0833509F099
:102850005BC022C0F801808189830E5F1F4F442432
:102860004394512C540115C03801F2E06F0E711CD5
:10287000F801A080B18026FF03C0652D70E002C082
:102880006FEF7FEFC5012C870E9488152C01830113
:102890002C852F77222E17C03801F2E06F0E711CA5
:1028A000F801A080B18026FF03C0652D70E002C052
:1028B0006FEF7FEFC5012C870E947D152C012C85C1
:1028C0002068222E830123FC1BC0832D90E0481634
:1028D0005906B0F4B70180E290E00E9493153A9453
:1028E000F4CFF50127FC859127FE81915F01B701A7
:1028F00090E00E94931531103A94F1E04F1A51087C
:102900004114510471F7E5C0843611F0893639F568
:10291000F80127FF07C060817181828193810C5F7C
:102920001F4F08C060817181072E000C880B990B26
:102930000E5F1F4F2F76722E97FF09C090958095DE
:10294000709561957F4F8F4F9F4F2068722E2AE0C0
:1029500030E0A4010E94CB15A82EA81844C08537EA
:1029600029F42F7EB22E2AE030E025C0F22FF97F25
:10297000BF2E8F36C1F018F4883579F0B4C0803797
:1029800019F0883721F0AFC02F2F2061B22EB4FE8E
:102990000DC08B2D8460B82E09C024FF0AC09F2F64
:1029A0009660B92E06C028E030E005C020E130E096
:1029B00002C020E132E0F801B7FE07C060817181FA
:1029C000828193810C5F1F4F06C06081718180E01E
:1029D00090E00E5F1F4FA4010E94CB15A82EA818EF
:1029E000FB2DFF777F2E76FE0BC0372D3E7FA51483
:1029F00050F474FE0AC072FC08C0372D3E7E05C03C
:102A0000BA2C372D03C0BA2C01C0B52C34FF0DC031
:102A1000FE01EA0DF11D8081803311F4397E09C079
:102A200032FF06C0B394B39404C0832F867809F0B4
:102A3000B39433FD13C030FF06C05A2CB31418F4FE
:102A4000530C5B18B32CB31468F4B70180E290E028
:102A50003C870E949315B3943C85F5CFB31410F4D2
:102A60003B1801C0312C34FF12C0B70180E390E065
:102A70003C870E9493153C8532FF17C031FD03C08F
:102A800088E790E002C088E590E0B7010CC0832F92
:102A9000867859F031FF02C08BE201C080E237FD39
:102AA0008DE2B70190E00E949315A51438F4B701A8
:102AB00080E390E00E9493155A94F7CFAA94F40112
:102AC000EA0DF11D8081B70190E00E949315A110DD
:102AD000F5CF332009F451CEB70180E290E00E9497
:102AE00093153A94F6CFF7018681978102C08FEF54
:102AF0009FEF2C96E2E10C944516FC010590615085
:102B000070400110D8F7809590958E0F9F1F089503
:102B1000FC016150704001900110D8F780959095AC
:102B20008E0F9F1F08950F931F93CF93DF93FB0189
:102B3000238121FD03C08FEF9FEF28C022FF16C025
:102B400046815781248135814217530744F4A0817F
:102B5000B1819D012F5F3F4F318320838C9326816C
:102B600037812F5F3F4F3783268310C0EB01092F3A
:102B7000182F0084F185E02D0995892BE1F68E81CF
:102B80009F8101969F838E83812F902FDF91CF911C
:102B90001F910F910895FA01AA27283051F1203191
:102BA00081F1E8946F936E7F6E5F7F4F8F4F9F4FE1
:102BB000AF4FB1E03ED0B4E03CD0670F781F891F23
:102BC0009A1FA11D680F791F8A1F911DA11D6A0FF1
:102BD000711D811D911DA11D20D009F468943F91A4
:102BE0002AE0269F11243019305D3193DEF6CF01A3
:102BF0000895462F4770405D4193B3E00FD0C9F769
:102C0000F6CF462F4F70405D4A3318F0495D31FDD5
:102C10004052419302D0A9F7EACFB4E0A695979528
:102C2000879577956795BA95C9F7009761057105FE
:102C300008959B01AC010A2E069457954795379548
:102C40002795BA95C9F7620F731F841F951FA01DA2
:102C500008952F923F924F925F926F927F928F9240
:102C60009F92AF92BF92CF92DF92EF92FF920F931B
:102C70001F93CF93DF93CDB7DEB7CA1BDB0B0FB625
:102C8000F894DEBF0FBECDBF09942A8839884888E2
:102C90005F846E847D848C849B84AA84B984C88478
:102CA000DF80EE80FD800C811B81AA81B981CE0F6F
:102CB000D11D0FB6F894DEBF0FBECDBFED01089554
:042CC000F894FFCFB6
:102CC40000000001000000000000620F000000008E
:102CD4000002000000007D0F000000002573256441
:102CE40025303364253033643D0025732564253055
:102CF40033643D002573303D002564002564253090
:102D0400336400256425303364253033640025633F
:102D140025733A00256325733A25733A0025632504
:102D2400642E25643A25643A25733D0025732530C5
:102D340034782563004572726F723A205265636578
:102D440069766564204672616D65207768696C6593
:102D5400206F6C64206672616D652070656E6469B5
:102D64006E67004572726F723A20526563656976C8
:102D74006564204672616D6520746F6F206C6F6EA0
:0A2D84006700256C64000A0D0000D2
:00000001FF
